:100000000EC028C00BC126C025C024C023C022C0FA
:1000100021C020C01FC01EC01DC01CC01BC0112499
:100020001FBECFE5D2E0DEBFCDBF10E0A0E6B0E05E
:10003000E0E8F2E002C005900D92AC37B107D9F7C5
:1000400020E0ACE7B0E001C01D92A438B207E1F7B0
:1000500055D014C1D5CF8BE088BB08958DE088BB07
:10006000089589E088BB089585E088BB089581E004
:1000700088BB089584E088BB08958DE088BB08950F
:100080008EE088BB089587E088BB089580B58160C5
:1000900080BD80B5826080BD80B5886080BDB99A22
:1000A000BB9AB89ABA9ABC981092830010928200B8
:1000B000109281001092800008958BB780628BBFF0
:1000C000AC9A85B7877E806185BFF89485B78062DA
:1000D00085BF85B7846885BF8B7F85BF78948895F9
:1000E00085B78F7D85BFF89480B5816080BD80B570
:1000F000826080BD80B5886080BD0895C7DFCFE095
:1001000086B38295817080937F0010928100109257
:10011000800053C010928300109282008091800072
:10012000909181000196909381008093800080914E
:100130007E00853030F480917E008F5F80937E005A
:1001400002C010927E0080917C00893430F480914E
:100150007C008F5F80937C000EC010927C008091A9
:100160007D00873030F480917D008F5F80937D002B
:1001700002C010927D00E0917D00F0E0EE0FFF1FC5
:10018000E05AFF4F0190F081E02D099526EA2A956B
:10019000F1F700C0C8BB86EA8A95F1F700C086B3C4
:1001A0008295817080937F00809180009091810082
:1001B0008938934110F0C8BB80DF80917F0088238D
:1001C00009F4A8CFE0917E00F0E0EE0FFF1FE059A8
:1001D000FF4F0190F081E02D099581EE94E00197A9
:1001E000F1F700C00000C8BB81EE94E00197F1F781
:1001F00000C000008091820090918300019690934E
:100200008300809382008091820090918300853FDB
:10021000914008F475CFC8BB50DF72CF1F920F9288
:100220000FB60F9211242F933F934F935F936F93C9
:100230007F938F939F93AF93BF93EF93FF9396B367
:10024000E3EDF0E33197F1F700C0000086B392953B
:10025000917082958170981330DFFF91EF91BF917B
:10026000AF919F918F917F916F915F914F913F914E
:100270002F910F900FBE0F901F901895F894FFCFFD
:100280003D0040002B004000430040002B00400098
:0C0290002B002E003100340037003A0033
:00000001FF
